{
  "_format": "hh-sol-artifact-1",
  "contractName": "Pokemon",
  "sourceName": "contracts/Pokemon.sol",
  "abi": [
    {
      "inputs": [],
      "stateMutability": "nonpayable",
      "type": "constructor"
    },
    {
      "anonymous": false,
      "inputs": [
        {
          "indexed": true,
          "internalType": "address",
          "name": "owner",
          "type": "address"
        },
        {
          "indexed": true,
          "internalType": "address",
          "name": "approved",
          "type": "address"
        },
        {
          "indexed": true,
          "internalType": "uint256",
          "name": "tokenId",
          "type": "uint256"
        }
      ],
      "name": "Approval",
      "type": "event"
    },
    {
      "anonymous": false,
      "inputs": [
        {
          "indexed": true,
          "internalType": "address",
          "name": "owner",
          "type": "address"
        },
        {
          "indexed": true,
          "internalType": "address",
          "name": "operator",
          "type": "address"
        },
        {
          "indexed": false,
          "internalType": "bool",
          "name": "approved",
          "type": "bool"
        }
      ],
      "name": "ApprovalForAll",
      "type": "event"
    },
    {
      "anonymous": false,
      "inputs": [
        {
          "indexed": true,
          "internalType": "address",
          "name": "from",
          "type": "address"
        },
        {
          "indexed": true,
          "internalType": "address",
          "name": "to",
          "type": "address"
        },
        {
          "indexed": true,
          "internalType": "uint256",
          "name": "tokenId",
          "type": "uint256"
        }
      ],
      "name": "Transfer",
      "type": "event"
    },
    {
      "inputs": [
        {
          "internalType": "address",
          "name": "to",
          "type": "address"
        },
        {
          "internalType": "uint256",
          "name": "tokenId",
          "type": "uint256"
        }
      ],
      "name": "approve",
      "outputs": [],
      "stateMutability": "nonpayable",
      "type": "function"
    },
    {
      "inputs": [
        {
          "internalType": "address",
          "name": "owner",
          "type": "address"
        }
      ],
      "name": "balanceOf",
      "outputs": [
        {
          "internalType": "uint256",
          "name": "",
          "type": "uint256"
        }
      ],
      "stateMutability": "view",
      "type": "function"
    },
    {
      "inputs": [
        {
          "internalType": "uint256",
          "name": "tokenId",
          "type": "uint256"
        },
        {
          "internalType": "string",
          "name": "data",
          "type": "string"
        },
        {
          "internalType": "string",
          "name": "name",
          "type": "string"
        }
      ],
      "name": "evolve",
      "outputs": [],
      "stateMutability": "nonpayable",
      "type": "function"
    },
    {
      "inputs": [
        {
          "internalType": "string",
          "name": "data",
          "type": "string"
        }
      ],
      "name": "generateCharacter",
      "outputs": [
        {
          "internalType": "string",
          "name": "",
          "type": "string"
        }
      ],
      "stateMutability": "pure",
      "type": "function"
    },
    {
      "inputs": [
        {
          "internalType": "uint256",
          "name": "tokenId",
          "type": "uint256"
        }
      ],
      "name": "getApproved",
      "outputs": [
        {
          "internalType": "address",
          "name": "",
          "type": "address"
        }
      ],
      "stateMutability": "view",
      "type": "function"
    },
    {
      "inputs": [
        {
          "internalType": "uint256",
          "name": "tokenId",
          "type": "uint256"
        },
        {
          "internalType": "string",
          "name": "data",
          "type": "string"
        },
        {
          "internalType": "string",
          "name": "name",
          "type": "string"
        }
      ],
      "name": "getTokenURI",
      "outputs": [
        {
          "internalType": "string",
          "name": "",
          "type": "string"
        }
      ],
      "stateMutability": "pure",
      "type": "function"
    },
    {
      "inputs": [
        {
          "internalType": "address",
          "name": "owner",
          "type": "address"
        },
        {
          "internalType": "address",
          "name": "operator",
          "type": "address"
        }
      ],
      "name": "isApprovedForAll",
      "outputs": [
        {
          "internalType": "bool",
          "name": "",
          "type": "bool"
        }
      ],
      "stateMutability": "view",
      "type": "function"
    },
    {
      "inputs": [
        {
          "internalType": "string",
          "name": "data",
          "type": "string"
        },
        {
          "internalType": "string",
          "name": "name",
          "type": "string"
        }
      ],
      "name": "mint",
      "outputs": [],
      "stateMutability": "nonpayable",
      "type": "function"
    },
    {
      "inputs": [],
      "name": "name",
      "outputs": [
        {
          "internalType": "string",
          "name": "",
          "type": "string"
        }
      ],
      "stateMutability": "view",
      "type": "function"
    },
    {
      "inputs": [
        {
          "internalType": "uint256",
          "name": "tokenId",
          "type": "uint256"
        }
      ],
      "name": "ownerOf",
      "outputs": [
        {
          "internalType": "address",
          "name": "",
          "type": "address"
        }
      ],
      "stateMutability": "view",
      "type": "function"
    },
    {
      "inputs": [
        {
          "internalType": "address",
          "name": "from",
          "type": "address"
        },
        {
          "internalType": "address",
          "name": "to",
          "type": "address"
        },
        {
          "internalType": "uint256",
          "name": "tokenId",
          "type": "uint256"
        }
      ],
      "name": "safeTransferFrom",
      "outputs": [],
      "stateMutability": "nonpayable",
      "type": "function"
    },
    {
      "inputs": [
        {
          "internalType": "address",
          "name": "from",
          "type": "address"
        },
        {
          "internalType": "address",
          "name": "to",
          "type": "address"
        },
        {
          "internalType": "uint256",
          "name": "tokenId",
          "type": "uint256"
        },
        {
          "internalType": "bytes",
          "name": "data",
          "type": "bytes"
        }
      ],
      "name": "safeTransferFrom",
      "outputs": [],
      "stateMutability": "nonpayable",
      "type": "function"
    },
    {
      "inputs": [
        {
          "internalType": "address",
          "name": "operator",
          "type": "address"
        },
        {
          "internalType": "bool",
          "name": "approved",
          "type": "bool"
        }
      ],
      "name": "setApprovalForAll",
      "outputs": [],
      "stateMutability": "nonpayable",
      "type": "function"
    },
    {
      "inputs": [
        {
          "internalType": "bytes4",
          "name": "interfaceId",
          "type": "bytes4"
        }
      ],
      "name": "supportsInterface",
      "outputs": [
        {
          "internalType": "bool",
          "name": "",
          "type": "bool"
        }
      ],
      "stateMutability": "view",
      "type": "function"
    },
    {
      "inputs": [],
      "name": "symbol",
      "outputs": [
        {
          "internalType": "string",
          "name": "",
          "type": "string"
        }
      ],
      "stateMutability": "view",
      "type": "function"
    },
    {
      "inputs": [
        {
          "internalType": "uint256",
          "name": "tokenId",
          "type": "uint256"
        }
      ],
      "name": "tokenURI",
      "outputs": [
        {
          "internalType": "string",
          "name": "",
          "type": "string"
        }
      ],
      "stateMutability": "view",
      "type": "function"
    },
    {
      "inputs": [
        {
          "internalType": "address",
          "name": "from",
          "type": "address"
        },
        {
          "internalType": "address",
          "name": "to",
          "type": "address"
        },
        {
          "internalType": "uint256",
          "name": "tokenId",
          "type": "uint256"
        }
      ],
      "name": "transferFrom",
      "outputs": [],
      "stateMutability": "nonpayable",
      "type": "function"
    }
  ],
  "bytecode": "0x60806040523480156200001157600080fd5b506040518060400160405280600781526020017f506f6b656d6f6e000000000000000000000000000000000000000000000000008152506040518060400160405280600481526020017f504f4b450000000000000000000000000000000000000000000000000000000081525081600090816200008f919062000324565b508060019081620000a1919062000324565b5050506200040b565b600081519050919050565b7f4e487b7100000000000000000000000000000000000000000000000000000000600052604160045260246000fd5b7f4e487b7100000000000000000000000000000000000000000000000000000000600052602260045260246000fd5b600060028204905060018216806200012c57607f821691505b602082108103620001425762000141620000e4565b5b50919050565b60008190508160005260206000209050919050565b60006020601f8301049050919050565b600082821b905092915050565b600060088302620001ac7fffffffffffffffffffffffffffffffffffffffffffffffffffffffffffffffff826200016d565b620001b886836200016d565b95508019841693508086168417925050509392505050565b6000819050919050565b6000819050919050565b600062000205620001ff620001f984620001d0565b620001da565b620001d0565b9050919050565b6000819050919050565b6200022183620001e4565b6200023962000230826200020c565b8484546200017a565b825550505050565b600090565b6200025062000241565b6200025d81848462000216565b505050565b5b8181101562000285576200027960008262000246565b60018101905062000263565b5050565b601f821115620002d4576200029e8162000148565b620002a9846200015d565b81016020851015620002b9578190505b620002d1620002c8856200015d565b83018262000262565b50505b505050565b600082821c905092915050565b6000620002f960001984600802620002d9565b1980831691505092915050565b6000620003148383620002e6565b9150826002028217905092915050565b6200032f82620000aa565b67ffffffffffffffff8111156200034b576200034a620000b5565b5b62000357825462000113565b6200036482828562000289565b600060209050601f8311600181146200039c576000841562000387578287015190505b62000393858262000306565b86555062000403565b601f198416620003ac8662000148565b60005b82811015620003d657848901518255600182019150602085019450602081019050620003af565b86831015620003f65784890151620003f2601f891682620002e6565b8355505b6001600288020188555050505b505050505050565b6133d9806200041b6000396000f3fe608060405234801561001057600080fd5b50600436106101165760003560e01c8063877bcc7b116100a2578063a22cb46511610071578063a22cb46514610303578063b88d4fde1461031f578063c6a4342f1461033b578063c87b56dd1461036b578063e985e9c51461039b57610116565b8063877bcc7b1461027d5780638aa0fdad1461029957806395d89b41146102b5578063a11f8683146102d357610116565b806323b872dd116100e957806323b872dd146101b5578063288d3d8d146101d157806342842e0e146102015780636352211e1461021d57806370a082311461024d57610116565b806301ffc9a71461011b57806306fdde031461014b578063081812fc14610169578063095ea7b314610199575b600080fd5b61013560048036038101906101309190611ce6565b6103cb565b6040516101429190611d2e565b60405180910390f35b6101536104ad565b6040516101609190611dd9565b60405180910390f35b610183600480360381019061017e9190611e31565b61053f565b6040516101909190611e9f565b60405180910390f35b6101b360048036038101906101ae9190611ee6565b610585565b005b6101cf60048036038101906101ca9190611f26565b61069c565b005b6101eb60048036038101906101e691906120ae565b6106fc565b6040516101f89190611dd9565b60405180910390f35b61021b60048036038101906102169190611f26565b610752565b005b61023760048036038101906102329190611e31565b610772565b6040516102449190611e9f565b60405180910390f35b610267600480360381019061026291906120f7565b6107f8565b6040516102749190612133565b60405180910390f35b6102976004803603810190610292919061214e565b6108af565b005b6102b360048036038101906102ae91906121d9565b6108c8565b005b6102bd61091c565b6040516102ca9190611dd9565b60405180910390f35b6102ed60048036038101906102e8919061214e565b6109ae565b6040516102fa9190611dd9565b60405180910390f35b61031d6004803603810190610318919061227d565b610a1a565b005b6103396004803603810190610334919061235e565b610a30565b005b61035560048036038101906103509190611e31565b610a92565b6040516103629190612133565b60405180910390f35b61038560048036038101906103809190611e31565b610aaa565b6040516103929190611dd9565b60405180910390f35b6103b560048036038101906103b091906123e1565b610bbc565b6040516103c29190611d2e565b60405180910390f35b60007f80ac58cd000000000000000000000000000000000000000000000000000000007bffffffffffffffffffffffffffffffffffffffffffffffffffffffff1916827bffffffffffffffffffffffffffffffffffffffffffffffffffffffff1916148061049657507f5b5e139f000000000000000000000000000000000000000000000000000000007bffffffffffffffffffffffffffffffffffffffffffffffffffffffff1916827bffffffffffffffffffffffffffffffffffffffffffffffffffffffff1916145b806104a657506104a582610c50565b5b9050919050565b6060600080546104bc90612450565b80601f01602080910402602001604051908101604052809291908181526020018280546104e890612450565b80156105355780601f1061050a57610100808354040283529160200191610535565b820191906000526020600020905b81548152906001019060200180831161051857829003601f168201915b5050505050905090565b600061054a82610cba565b6004600083815260200190815260200160002060009054906101000a900473ffffffffffffffffffffffffffffffffffffffff169050919050565b600061059082610772565b90508073ffffffffffffffffffffffffffffffffffffffff168373ffffffffffffffffffffffffffffffffffffffff1603610600576040517f08c379a00000000000000000000000000000000000000000000000000000000081526004016105f7906124f3565b60405180910390fd5b8073ffffffffffffffffffffffffffffffffffffffff1661061f610d05565b73ffffffffffffffffffffffffffffffffffffffff16148061064e575061064d81610648610d05565b610bbc565b5b61068d576040517f08c379a000000000000000000000000000000000000000000000000000000000815260040161068490612585565b60405180910390fd5b6106978383610d0d565b505050565b6106ad6106a7610d05565b82610dc6565b6106ec576040517f08c379a00000000000000000000000000000000000000000000000000000000081526004016106e390612617565b60405180910390fd5b6106f7838383610e5b565b505050565b60606000826040516020016107119190612673565b604051602081830303815290604052905061072b81611154565b60405160200161073b91906126d6565b604051602081830303815290604052915050919050565b61076d83838360405180602001604052806000815250610a30565b505050565b60008061077e836112b7565b9050600073ffffffffffffffffffffffffffffffffffffffff168173ffffffffffffffffffffffffffffffffffffffff16036107ef576040517f08c379a00000000000000000000000000000000000000000000000000000000081526004016107e690612744565b60405180910390fd5b80915050919050565b60008073ffffffffffffffffffffffffffffffffffffffff168273ffffffffffffffffffffffffffffffffffffffff1603610868576040517f08c379a000000000000000000000000000000000000000000000000000000000815260040161085f906127d6565b60405180910390fd5b600360008373ffffffffffffffffffffffffffffffffffffffff1673ffffffffffffffffffffffffffffffffffffffff168152602001908152602001600020549050919050565b6108c3836108be8585856109ae565b6112f4565b505050565b6108d26007611361565b60006108de6007611377565b90506108ea3382611385565b60006008600083815260200190815260200160002081905550610917816109128386866109ae565b6112f4565b505050565b60606001805461092b90612450565b80601f016020809104026020016040519081016040528092919081815260200182805461095790612450565b80156109a45780601f10610979576101008083540402835291602001916109a4565b820191906000526020600020905b81548152906001019060200180831161098757829003601f168201915b5050505050905090565b606060006109bb856113a3565b836109c5866106fc565b6040516020016109d793929190612a56565b60405160208183030381529060405290506109f181611154565b604051602001610a019190612b2b565b6040516020818303038152906040529150509392505050565b610a2c610a25610d05565b8383611471565b5050565b610a41610a3b610d05565b83610dc6565b610a80576040517f08c379a0000000000000000000000000000000000000000000000000000000008152600401610a7790612617565b60405180910390fd5b610a8c848484846115dd565b50505050565b60086020528060005260406000206000915090505481565b6060610ab582610cba565b6000600660008481526020019081526020016000208054610ad590612450565b80601f0160208091040260200160405190810160405280929190818152602001828054610b0190612450565b8015610b4e5780601f10610b2357610100808354040283529160200191610b4e565b820191906000526020600020905b815481529060010190602001808311610b3157829003601f168201915b505050505090506000610b5f611639565b90506000815103610b74578192505050610bb7565b600082511115610ba9578082604051602001610b91929190612b4d565b60405160208183030381529060405292505050610bb7565b610bb284611650565b925050505b919050565b6000600560008473ffffffffffffffffffffffffffffffffffffffff1673ffffffffffffffffffffffffffffffffffffffff16815260200190815260200160002060008373ffffffffffffffffffffffffffffffffffffffff1673ffffffffffffffffffffffffffffffffffffffff16815260200190815260200160002060009054906101000a900460ff16905092915050565b60007f01ffc9a7000000000000000000000000000000000000000000000000000000007bffffffffffffffffffffffffffffffffffffffffffffffffffffffff1916827bffffffffffffffffffffffffffffffffffffffffffffffffffffffff1916149050919050565b610cc3816116b8565b610d02576040517f08c379a0000000000000000000000000000000000000000000000000000000008152600401610cf990612744565b60405180910390fd5b50565b600033905090565b816004600083815260200190815260200160002060006101000a81548173ffffffffffffffffffffffffffffffffffffffff021916908373ffffffffffffffffffffffffffffffffffffffff160217905550808273ffffffffffffffffffffffffffffffffffffffff16610d8083610772565b73ffffffffffffffffffffffffffffffffffffffff167f8c5be1e5ebec7d5bd14f71427d1e84f3dd0314c0f7b2291e5b200ac8c7c3b92560405160405180910390a45050565b600080610dd283610772565b90508073ffffffffffffffffffffffffffffffffffffffff168473ffffffffffffffffffffffffffffffffffffffff161480610e145750610e138185610bbc565b5b80610e5257508373ffffffffffffffffffffffffffffffffffffffff16610e3a8461053f565b73ffffffffffffffffffffffffffffffffffffffff16145b91505092915050565b8273ffffffffffffffffffffffffffffffffffffffff16610e7b82610772565b73ffffffffffffffffffffffffffffffffffffffff1614610ed1576040517f08c379a0000000000000000000000000000000000000000000000000000000008152600401610ec890612be3565b60405180910390fd5b600073ffffffffffffffffffffffffffffffffffffffff168273ffffffffffffffffffffffffffffffffffffffff1603610f40576040517f08c379a0000000000000000000000000000000000000000000000000000000008152600401610f3790612c75565b60405180910390fd5b610f4d83838360016116f9565b8273ffffffffffffffffffffffffffffffffffffffff16610f6d82610772565b73ffffffffffffffffffffffffffffffffffffffff1614610fc3576040517f08c379a0000000000000000000000000000000000000000000000000000000008152600401610fba90612be3565b60405180910390fd5b6004600082815260200190815260200160002060006101000a81549073ffffffffffffffffffffffffffffffffffffffff02191690556001600360008573ffffffffffffffffffffffffffffffffffffffff1673ffffffffffffffffffffffffffffffffffffffff168152602001908152602001600020600082825403925050819055506001600360008473ffffffffffffffffffffffffffffffffffffffff1673ffffffffffffffffffffffffffffffffffffffff16815260200190815260200160002060008282540192505081905550816002600083815260200190815260200160002060006101000a81548173ffffffffffffffffffffffffffffffffffffffff021916908373ffffffffffffffffffffffffffffffffffffffff160217905550808273ffffffffffffffffffffffffffffffffffffffff168473ffffffffffffffffffffffffffffffffffffffff167fddf252ad1be2c89b69c2b068fc378daa952ba7f163c4a11628f55a4df523b3ef60405160405180910390a461114f83838360016116ff565b505050565b60606000825103611176576040518060200160405280600081525090506112b2565b600060405180606001604052806040815260200161336460409139905060006003600285516111a59190612cc4565b6111af9190612d27565b60046111bb9190612d58565b67ffffffffffffffff8111156111d4576111d3611f83565b5b6040519080825280601f01601f1916602001820160405280156112065781602001600182028036833780820191505090505b509050600182016020820185865187015b80821015611272576003820191508151603f8160121c168501518453600184019350603f81600c1c168501518453600184019350603f8160061c168501518453600184019350603f8116850151845360018401935050611217565b505060038651066001811461128e57600281146112a1576112a9565b603d6001830353603d60028303536112a9565b603d60018303535b50505080925050505b919050565b60006002600083815260200190815260200160002060009054906101000a900473ffffffffffffffffffffffffffffffffffffffff169050919050565b6112fd826116b8565b61133c576040517f08c379a000000000000000000000000000000000000000000000000000000000815260040161133390612e0c565b60405180910390fd5b8060066000848152602001908152602001600020908161135c9190612fd8565b505050565b6001816000016000828254019250508190555050565b600081600001549050919050565b61139f828260405180602001604052806000815250611705565b5050565b6060600060016113b284611760565b01905060008167ffffffffffffffff8111156113d1576113d0611f83565b5b6040519080825280601f01601f1916602001820160405280156114035781602001600182028036833780820191505090505b509050600082602001820190505b600115611466578080600190039150507f3031323334353637383961626364656600000000000000000000000000000000600a86061a8153600a858161145a57611459612cf8565b5b04945060008503611411575b819350505050919050565b8173ffffffffffffffffffffffffffffffffffffffff168373ffffffffffffffffffffffffffffffffffffffff16036114df576040517f08c379a00000000000000000000000000000000000000000000000000000000081526004016114d6906130f6565b60405180910390fd5b80600560008573ffffffffffffffffffffffffffffffffffffffff1673ffffffffffffffffffffffffffffffffffffffff16815260200190815260200160002060008473ffffffffffffffffffffffffffffffffffffffff1673ffffffffffffffffffffffffffffffffffffffff16815260200190815260200160002060006101000a81548160ff0219169083151502179055508173ffffffffffffffffffffffffffffffffffffffff168373ffffffffffffffffffffffffffffffffffffffff167f17307eab39ab6107e8899845ad3d59bd9653f200f220920489ca2b5937696c31836040516115d09190611d2e565b60405180910390a3505050565b6115e8848484610e5b565b6115f4848484846118b3565b611633576040517f08c379a000000000000000000000000000000000000000000000000000000000815260040161162a90613188565b60405180910390fd5b50505050565b606060405180602001604052806000815250905090565b606061165b82610cba565b6000611665611639565b9050600081511161168557604051806020016040528060008152506116b0565b8061168f846113a3565b6040516020016116a0929190612b4d565b6040516020818303038152906040525b915050919050565b60008073ffffffffffffffffffffffffffffffffffffffff166116da836112b7565b73ffffffffffffffffffffffffffffffffffffffff1614159050919050565b50505050565b50505050565b61170f8383611a3a565b61171c60008484846118b3565b61175b576040517f08c379a000000000000000000000000000000000000000000000000000000000815260040161175290613188565b60405180910390fd5b505050565b600080600090507a184f03e93ff9f4daa797ed6e38ed64bf6a1f01000000000000000083106117be577a184f03e93ff9f4daa797ed6e38ed64bf6a1f01000000000000000083816117b4576117b3612cf8565b5b0492506040810190505b6d04ee2d6d415b85acef810000000083106117fb576d04ee2d6d415b85acef810000000083816117f1576117f0612cf8565b5b0492506020810190505b662386f26fc10000831061182a57662386f26fc1000083816118205761181f612cf8565b5b0492506010810190505b6305f5e1008310611853576305f5e100838161184957611848612cf8565b5b0492506008810190505b612710831061187857612710838161186e5761186d612cf8565b5b0492506004810190505b6064831061189b576064838161189157611890612cf8565b5b0492506002810190505b600a83106118aa576001810190505b80915050919050565b60006118d48473ffffffffffffffffffffffffffffffffffffffff16611c57565b15611a2d578373ffffffffffffffffffffffffffffffffffffffff1663150b7a026118fd610d05565b8786866040518563ffffffff1660e01b815260040161191f94939291906131fd565b6020604051808303816000875af192505050801561195b57506040513d601f19601f82011682018060405250810190611958919061325e565b60015b6119dd573d806000811461198b576040519150601f19603f3d011682016040523d82523d6000602084013e611990565b606091505b5060008151036119d5576040517f08c379a00000000000000000000000000000000000000000000000000000000081526004016119cc90613188565b60405180910390fd5b805181602001fd5b63150b7a0260e01b7bffffffffffffffffffffffffffffffffffffffffffffffffffffffff1916817bffffffffffffffffffffffffffffffffffffffffffffffffffffffff191614915050611a32565b600190505b949350505050565b600073ffffffffffffffffffffffffffffffffffffffff168273ffffffffffffffffffffffffffffffffffffffff1603611aa9576040517f08c379a0000000000000000000000000000000000000000000000000000000008152600401611aa0906132d7565b60405180910390fd5b611ab2816116b8565b15611af2576040517f08c379a0000000000000000000000000000000000000000000000000000000008152600401611ae990613343565b60405180910390fd5b611b006000838360016116f9565b611b09816116b8565b15611b49576040517f08c379a0000000000000000000000000000000000000000000000000000000008152600401611b4090613343565b60405180910390fd5b6001600360008473ffffffffffffffffffffffffffffffffffffffff1673ffffffffffffffffffffffffffffffffffffffff16815260200190815260200160002060008282540192505081905550816002600083815260200190815260200160002060006101000a81548173ffffffffffffffffffffffffffffffffffffffff021916908373ffffffffffffffffffffffffffffffffffffffff160217905550808273ffffffffffffffffffffffffffffffffffffffff16600073ffffffffffffffffffffffffffffffffffffffff167fddf252ad1be2c89b69c2b068fc378daa952ba7f163c4a11628f55a4df523b3ef60405160405180910390a4611c536000838360016116ff565b5050565b6000808273ffffffffffffffffffffffffffffffffffffffff163b119050919050565b6000604051905090565b600080fd5b600080fd5b60007fffffffff0000000000000000000000000000000000000000000000000000000082169050919050565b611cc381611c8e565b8114611cce57600080fd5b50565b600081359050611ce081611cba565b92915050565b600060208284031215611cfc57611cfb611c84565b5b6000611d0a84828501611cd1565b91505092915050565b60008115159050919050565b611d2881611d13565b82525050565b6000602082019050611d436000830184611d1f565b92915050565b600081519050919050565b600082825260208201905092915050565b60005b83811015611d83578082015181840152602081019050611d68565b60008484015250505050565b6000601f19601f8301169050919050565b6000611dab82611d49565b611db58185611d54565b9350611dc5818560208601611d65565b611dce81611d8f565b840191505092915050565b60006020820190508181036000830152611df38184611da0565b905092915050565b6000819050919050565b611e0e81611dfb565b8114611e1957600080fd5b50565b600081359050611e2b81611e05565b92915050565b600060208284031215611e4757611e46611c84565b5b6000611e5584828501611e1c565b91505092915050565b600073ffffffffffffffffffffffffffffffffffffffff82169050919050565b6000611e8982611e5e565b9050919050565b611e9981611e7e565b82525050565b6000602082019050611eb46000830184611e90565b92915050565b611ec381611e7e565b8114611ece57600080fd5b50565b600081359050611ee081611eba565b92915050565b60008060408385031215611efd57611efc611c84565b5b6000611f0b85828601611ed1565b9250506020611f1c85828601611e1c565b9150509250929050565b600080600060608486031215611f3f57611f3e611c84565b5b6000611f4d86828701611ed1565b9350506020611f5e86828701611ed1565b9250506040611f6f86828701611e1c565b9150509250925092565b600080fd5b600080fd5b7f4e487b7100000000000000000000000000000000000000000000000000000000600052604160045260246000fd5b611fbb82611d8f565b810181811067ffffffffffffffff82111715611fda57611fd9611f83565b5b80604052505050565b6000611fed611c7a565b9050611ff98282611fb2565b919050565b600067ffffffffffffffff82111561201957612018611f83565b5b61202282611d8f565b9050602081019050919050565b82818337600083830152505050565b600061205161204c84611ffe565b611fe3565b90508281526020810184848401111561206d5761206c611f7e565b5b61207884828561202f565b509392505050565b600082601f83011261209557612094611f79565b5b81356120a584826020860161203e565b91505092915050565b6000602082840312156120c4576120c3611c84565b5b600082013567ffffffffffffffff8111156120e2576120e1611c89565b5b6120ee84828501612080565b91505092915050565b60006020828403121561210d5761210c611c84565b5b600061211b84828501611ed1565b91505092915050565b61212d81611dfb565b82525050565b60006020820190506121486000830184612124565b92915050565b60008060006060848603121561216757612166611c84565b5b600061217586828701611e1c565b935050602084013567ffffffffffffffff81111561219657612195611c89565b5b6121a286828701612080565b925050604084013567ffffffffffffffff8111156121c3576121c2611c89565b5b6121cf86828701612080565b9150509250925092565b600080604083850312156121f0576121ef611c84565b5b600083013567ffffffffffffffff81111561220e5761220d611c89565b5b61221a85828601612080565b925050602083013567ffffffffffffffff81111561223b5761223a611c89565b5b61224785828601612080565b9150509250929050565b61225a81611d13565b811461226557600080fd5b50565b60008135905061227781612251565b92915050565b6000806040838503121561229457612293611c84565b5b60006122a285828601611ed1565b92505060206122b385828601612268565b9150509250929050565b600067ffffffffffffffff8211156122d8576122d7611f83565b5b6122e182611d8f565b9050602081019050919050565b60006123016122fc846122bd565b611fe3565b90508281526020810184848401111561231d5761231c611f7e565b5b61232884828561202f565b509392505050565b600082601f83011261234557612344611f79565b5b81356123558482602086016122ee565b91505092915050565b6000806000806080858703121561237857612377611c84565b5b600061238687828801611ed1565b945050602061239787828801611ed1565b93505060406123a887828801611e1c565b925050606085013567ffffffffffffffff8111156123c9576123c8611c89565b5b6123d587828801612330565b91505092959194509250565b600080604083850312156123f8576123f7611c84565b5b600061240685828601611ed1565b925050602061241785828601611ed1565b9150509250929050565b7f4e487b7100000000000000000000000000000000000000000000000000000000600052602260045260246000fd5b6000600282049050600182168061246857607f821691505b60208210810361247b5761247a612421565b5b50919050565b7f4552433732313a20617070726f76616c20746f2063757272656e74206f776e6560008201527f7200000000000000000000000000000000000000000000000000000000000000602082015250565b60006124dd602183611d54565b91506124e882612481565b604082019050919050565b6000602082019050818103600083015261250c816124d0565b9050919050565b7f4552433732313a20617070726f76652063616c6c6572206973206e6f7420746f60008201527f6b656e206f776e6572206f7220617070726f76656420666f7220616c6c000000602082015250565b600061256f603d83611d54565b915061257a82612513565b604082019050919050565b6000602082019050818103600083015261259e81612562565b9050919050565b7f4552433732313a2063616c6c6572206973206e6f7420746f6b656e206f776e6560008201527f72206f7220617070726f76656400000000000000000000000000000000000000602082015250565b6000612601602d83611d54565b915061260c826125a5565b604082019050919050565b60006020820190508181036000830152612630816125f4565b9050919050565b600081905092915050565b600061264d82611d49565b6126578185612637565b9350612667818560208601611d65565b80840191505092915050565b600061267f8284612642565b915081905092915050565b7f646174613a696d6167652f7376672b786d6c3b6261736536342c000000000000600082015250565b60006126c0601a83612637565b91506126cb8261268a565b601a82019050919050565b60006126e1826126b3565b91506126ed8284612642565b915081905092915050565b7f4552433732313a20696e76616c696420746f6b656e2049440000000000000000600082015250565b600061272e601883611d54565b9150612739826126f8565b602082019050919050565b6000602082019050818103600083015261275d81612721565b9050919050565b7f4552433732313a2061646472657373207a65726f206973206e6f74206120766160008201527f6c6964206f776e65720000000000000000000000000000000000000000000000602082015250565b60006127c0602983611d54565b91506127cb82612764565b604082019050919050565b600060208201905081810360008301526127ef816127b3565b9050919050565b7f7b00000000000000000000000000000000000000000000000000000000000000600082015250565b600061282c600183612637565b9150612837826127f6565b600182019050919050565b7f226e616d65223a2022506f6b656d6f6e20230000000000000000000000000000600082015250565b6000612878601283612637565b915061288382612842565b601282019050919050565b7f2000000000000000000000000000000000000000000000000000000000000000600082015250565b60006128c4600183612637565b91506128cf8261288e565b600182019050919050565b7f222c000000000000000000000000000000000000000000000000000000000000600082015250565b6000612910600283612637565b915061291b826128da565b600282019050919050565b7f226465736372697074696f6e223a2022506f6b656d6f6e222c00000000000000600082015250565b600061295c601983612637565b915061296782612926565b601982019050919050565b7f22696d616765223a202200000000000000000000000000000000000000000000600082015250565b60006129a8600a83612637565b91506129b382612972565b600a82019050919050565b7f2200000000000000000000000000000000000000000000000000000000000000600082015250565b60006129f4600183612637565b91506129ff826129be565b600182019050919050565b7f7d00000000000000000000000000000000000000000000000000000000000000600082015250565b6000612a40600183612637565b9150612a4b82612a0a565b600182019050919050565b6000612a618261281f565b9150612a6c8261286b565b9150612a788286612642565b9150612a83826128b7565b9150612a8f8285612642565b9150612a9a82612903565b9150612aa58261294f565b9150612ab08261299b565b9150612abc8284612642565b9150612ac7826129e7565b9150612ad282612a33565b9150819050949350505050565b7f646174613a6170706c69636174696f6e2f6a736f6e3b6261736536342c000000600082015250565b6000612b15601d83612637565b9150612b2082612adf565b601d82019050919050565b6000612b3682612b08565b9150612b428284612642565b915081905092915050565b6000612b598285612642565b9150612b658284612642565b91508190509392505050565b7f4552433732313a207472616e736665722066726f6d20696e636f72726563742060008201527f6f776e6572000000000000000000000000000000000000000000000000000000602082015250565b6000612bcd602583611d54565b9150612bd882612b71565b604082019050919050565b60006020820190508181036000830152612bfc81612bc0565b9050919050565b7f4552433732313a207472616e7366657220746f20746865207a65726f2061646460008201527f7265737300000000000000000000000000000000000000000000000000000000602082015250565b6000612c5f602483611d54565b9150612c6a82612c03565b604082019050919050565b60006020820190508181036000830152612c8e81612c52565b9050919050565b7f4e487b7100000000000000000000000000000000000000000000000000000000600052601160045260246000fd5b6000612ccf82611dfb565b9150612cda83611dfb565b9250828201905080821115612cf257612cf1612c95565b5b92915050565b7f4e487b7100000000000000000000000000000000000000000000000000000000600052601260045260246000fd5b6000612d3282611dfb565b9150612d3d83611dfb565b925082612d4d57612d4c612cf8565b5b828204905092915050565b6000612d6382611dfb565b9150612d6e83611dfb565b9250828202612d7c81611dfb565b91508282048414831517612d9357612d92612c95565b5b5092915050565b7f45524337323155524953746f726167653a2055524920736574206f66206e6f6e60008201527f6578697374656e7420746f6b656e000000000000000000000000000000000000602082015250565b6000612df6602e83611d54565b9150612e0182612d9a565b604082019050919050565b60006020820190508181036000830152612e2581612de9565b9050919050565b60008190508160005260206000209050919050565b60006020601f8301049050919050565b600082821b905092915050565b600060088302612e8e7fffffffffffffffffffffffffffffffffffffffffffffffffffffffffffffffff82612e51565b612e988683612e51565b95508019841693508086168417925050509392505050565b6000819050919050565b6000612ed5612ed0612ecb84611dfb565b612eb0565b611dfb565b9050919050565b6000819050919050565b612eef83612eba565b612f03612efb82612edc565b848454612e5e565b825550505050565b600090565b612f18612f0b565b612f23818484612ee6565b505050565b5b81811015612f4757612f3c600082612f10565b600181019050612f29565b5050565b601f821115612f8c57612f5d81612e2c565b612f6684612e41565b81016020851015612f75578190505b612f89612f8185612e41565b830182612f28565b50505b505050565b600082821c905092915050565b6000612faf60001984600802612f91565b1980831691505092915050565b6000612fc88383612f9e565b9150826002028217905092915050565b612fe182611d49565b67ffffffffffffffff811115612ffa57612ff9611f83565b5b6130048254612450565b61300f828285612f4b565b600060209050601f8311600181146130425760008415613030578287015190505b61303a8582612fbc565b8655506130a2565b601f19841661305086612e2c565b60005b8281101561307857848901518255600182019150602085019450602081019050613053565b868310156130955784890151613091601f891682612f9e565b8355505b6001600288020188555050505b505050505050565b7f4552433732313a20617070726f766520746f2063616c6c657200000000000000600082015250565b60006130e0601983611d54565b91506130eb826130aa565b602082019050919050565b6000602082019050818103600083015261310f816130d3565b9050919050565b7f4552433732313a207472616e7366657220746f206e6f6e20455243373231526560008201527f63656976657220696d706c656d656e7465720000000000000000000000000000602082015250565b6000613172603283611d54565b915061317d82613116565b604082019050919050565b600060208201905081810360008301526131a181613165565b9050919050565b600081519050919050565b600082825260208201905092915050565b60006131cf826131a8565b6131d981856131b3565b93506131e9818560208601611d65565b6131f281611d8f565b840191505092915050565b60006080820190506132126000830187611e90565b61321f6020830186611e90565b61322c6040830185612124565b818103606083015261323e81846131c4565b905095945050505050565b60008151905061325881611cba565b92915050565b60006020828403121561327457613273611c84565b5b600061328284828501613249565b91505092915050565b7f4552433732313a206d696e7420746f20746865207a65726f2061646472657373600082015250565b60006132c1602083611d54565b91506132cc8261328b565b602082019050919050565b600060208201905081810360008301526132f0816132b4565b9050919050565b7f4552433732313a20746f6b656e20616c7265616479206d696e74656400000000600082015250565b600061332d601c83611d54565b9150613338826132f7565b602082019050919050565b6000602082019050818103600083015261335c81613320565b905091905056fe4142434445464748494a4b4c4d4e4f505152535455565758595a6162636465666768696a6b6c6d6e6f707172737475767778797a303132333435363738392b2fa2646970667358221220fc6d16de4b6e354fb3b2fa76c347eaf6041206f647863e8877aec477fed07c7f64736f6c63430008120033",
  "linkReferences": {},
  "deployedLinkReferences": {}
}